:1000000021C04EC33AC0FDC138C059C21DC239C259
:1000100034C033C032C006C354C12FC02EC02DC05F
:100020002CC0C8C82301240F260721012201310456
:1000300046616E204B69746368656E207632204499
:10004000494D000011241FBECFE5D2E0DEBFCDBF79
:1000500010E0A0E6B0E0E6E1F8E102C005900D9204
:10006000A636B107D9F720E0A6E6B0E001C01D92A0
:10007000A53FB207E1F786D6CCCBC2CF882331F0BB
:100080009AE19A95F1F700C08150F8CFA8950895AC
:10009000009761F02FEF30E742E0215030404040C0
:1000A000E1F700C00000A8950197F2CF0895EF9204
:1000B000FF920F931F93CF93DF93F82E062F10E03C
:1000C000EE24E394C42FD0E010929200FF2041F080
:1000D000C801DEDFE0929200CE01DADFFA94F4CFBD
:1000E000DF91CF911F910F91FF90EF9008958FB9FD
:1000F00080E48EB98BE18DB9769BFDCF8FB10895E9
:10010000DB988F71F4DF8FEFF2DFDB9A0895EF92C7
:10011000FF921F93CF93DF9300D0CDB7DEB7142F9C
:10012000DB9869837A83E3DF6981E62E7A81F72E93
:10013000160F1E1531F08FEFDADFF70181937F0183
:10014000F8CFDB9A0F900F90DF91CF911F91FF9026
:10015000EF900895CF93DF931F92CDB7DEB7DB9872
:100160006983C5DF6981862FC2DFDB9A0F90DF913B
:10017000CF910895EF92FF921F93CF93DF9300D01A
:10018000CDB7DEB7142FDB9869837A83B0DF69813E
:10019000E62E7A81F72E160F1E1529F0F7018191B0
:1001A0007F01A5DFF9CFDB9A0F900F90DF91CF9100
:1001B0001F91FF90EF900895DB9899DFDB9A0895E7
:1001C000CF93C82F682F6E6780E2C4DFC0FDDA9A34
:1001D000CF9108951F93CF93DF93EC018FEFECDF66
:1001E000182F86FF0CC044E0BE0181E690DF60E777
:1001F00087E2B0DF812F869587708F5F05C087E12A
:100200007FDF80FFF0CF80E0DF91CF911F910895D5
:10021000CF93DF93EC01DA9860E787E29BDF44E05D
:10022000BE0180EAA7DFDA9AC0E08AE027DF8FEF1D
:10023000C3DF85FD0AC084FF04C081EEBDDF81E01D
:1002400005C0C15091F782E001C080E0DF91CF91FD
:100250000895CF93C82F80939B0042E050E062E264
:1002600070E08CE990E099DA43E06BE970E08AE2B3
:1002700081DF43E06BE970E080E37CDF43E06BE922
:1002800070E080E144DF81E090919B009C1380E06E
:10029000CF9108951F93CF93DF93182FDB9AC4E279
:1002A000D0E0FE0184913196649154DF2296F0E013
:1002B000C033DF07B1F7612F85E2DF91CF911F9146
:1002C00049CF1F920F920FB60F9211242F933F9395
:1002D0004F935F936F937F938F939F93EF93FF93CE
:1002E00080917F0090919100891308C0E091EC000B
:1002F000F0E0808190919F00892B33C0882319F111
:10030000109273008091A0009091A1002091A20012
:100310003091A300820F931F80322EE4920710F0D9
:100320008E519E449BBD8ABD2091930030919400D4
:10033000280F391F20328EE4380710F02E513E442A
:1003400039BD28BD0FC08FEF9FEF9BBD8ABD99BD02
:1003500088BDE091EC00F0E090919F009095808145
:10036000892380837894409160005091610050937C
:100370006300409362002091A2003091A30060913D
:10038000740070917500C9012617370710F4815E5B
:10039000914B861B970B90936100809360004817E8
:1003A000590708F4CA019093650080936400309364
:1003B00075002093740080919000882399F08091BB
:1003C000A400882379F09AE19A95F1F700C0815052
:1003D000D1F7E0919000F0E09091950090958081A8
:1003E00089238083FF91EF919F918F917F916F91EE
:1003F0005F914F913F912F910F900FBE0F901F90E3
:1004000018951F920F920FB60F9211248F939F93FE
:10041000EF93FF93E0919000F0E080819091950040
:10042000892B80838CB59DB59093A3008093A20007
:10043000ECE0F0E00995FF91EF919F918F910F9083
:100440000FBE0F901F9018951F920F920FB60F922C
:1004500011248F939F93EF93FF93E091EC00F0E0D2
:10046000808190919F00892B80838FEF8BBD8ABD07
:10047000FF91EF919F918F910F900FBE0F901F9062
:1004800018951F920F920FB60F9211248F939F937E
:10049000EF93FF93E091EC00F0E090919F00909536
:1004A0008081892380838FEF89BD88BDFF91EF9183
:1004B0009F918F910F900FBE0F901F901895789479
:1004C0001F920F920FB60F9211248F939F938091DA
:1004D0006C008F5F80936C00853008F47FC01092B1
:1004E0006C0080916B008F5F80936B008A30B8F056
:1004F00010926B0081E080936A00809169008F5FA9
:10050000809369008C3358F01092690080918100CB
:10051000882329F08091810081508093810080910F
:100520006D00882341F0815080936D00811148C097
:100530001092920045C080917100882339F091E0BB
:10054000909392008150809371003AC08091700026
:10055000882321F01092920081500FC080916F008B
:10056000882371F0815080936F009EE0909371001A
:10057000811102C086E00EC084E08093700020C02C
:1005800080916E00882371F0815080936E0083E02B
:10059000809371008093700080916E00811110C073
:1005A00089E1EBCF80917200882351F0982F9295CA
:1005B0009F7090936F008F7080936E001092720006
:1005C00080918700882319F0815080938700809163
:1005D0007600882319F08150809376008091830003
:1005E000882319F0815080938300809192008823A2
:1005F00011F0D99A0FC080917F00811108C08091BD
:100600007700811104C0D89902C0C09B02C0D19864
:1006100002C0D998D19A9F918F910F900FBE0F90E1
:100620001F9018951F920F920FB60F9211248F935F
:1006300080918E00823041F480918900893030F0C1
:1006400083E080938E0004C0813011F410928E00FC
:1006500080918E008330F1F0B29914C080918300B4
:10066000811118C0809185008F5F809385008F3F36
:1006700089F4809184008F5F8093840087E0809369
:10068000850008C080918500873020F41092840096
:10069000109285008F910F900FBE0F901F901895AC
:1006A0001F920F920FB60F9211242F933F934F93E7
:1006B0005F936F937F938F939F93AF93BF93CF93EA
:1006C000DF93EF93FF9380918E00833008F057C043
:1006D00042B7442309F453C012BE789480918E002F
:1006E000811102C081E049C0813061F4109289001B
:1006F00085E095E190938D0080938C0040939A0063
:1007000082E03BC0C42FD0E020919A0030E0C901C4
:10071000880F991F880F991FE6E0F0E0BF0186D788
:10072000C617D70764F0CE01880F991F880F991F4D
:10073000BF017CD72617370724F452E003C051E0ED
:1007400001C050E020918C0030918D00C90165E01E
:10075000880F991F6A95E1F7820F931F8527909361
:100760008D0080938C0040939A00809189008F5F68
:1007700080938900811103C083E080938E00FF91F4
:10078000EF91DF91CF91BF91AF919F918F917F9129
:100790006F915F914F913F912F910F900FBE0F90EE
:1007A0001F90189590917200911102C08093720071
:1007B0000895109270001092710010926E001092C5
:1007C0006F0080937200109292000895CF93DF9390
:1007D00065E381E090E0F7D761EC82E090E0F3D749
:1007E0006AE783E090E0EFD760E080E190E0EBD74C
:1007F00060E085E290E0E7D764E373E084E090E0B6
:10080000F4D76EE873E086E090E0EFD768EE73E02F
:1008100088E090E0EAD761E08AE090E0D4D764E62F
:100820008BE090E0D0D760E08DE090E0CCD763E043
:100830008CE090E0C8D764E18EE090E0C4D766E039
:100840008FE090E0C0D766E081E190E0BCD763E044
:1008500089E190E0B8D763E08AE190E0B4D764E141
:1008600082E190E0B0D76DE083E190E0ACD76FE03B
:1008700084E190E0A8D764E185E190E0A4D76EE040
:1008800086E190E0A0D764E187E190E09CD768E240
:1008900088E190E098D766E077E28CE190E0A5D718
:1008A00064E670E08EE190E0A0D765E08BE190E037
:1008B0008AD760E070E080E290E097D76CE382E254
:1008C00090E081D765E083E290E07DD766E084E246
:1008D00090E079D7C0E0D0E060E070E0CE018A5DC2
:1008E0009F4F83D72296C43BD105B1F7DF91CF91BB
:1008F000089581E090E05AD78093A50082E190E0CE
:1009000055D78093910080E290E058D76AE070E07C
:1009100079D66093A40008952F923F924F925F92F0
:100920006F927F928F929F92AF92BF92CF92DF92FF
:10093000EF92FF920F931F93CF93DF9300D000D0DD
:1009400000D0CDB7DEB7182F062F809164009091AC
:1009500065009E838D836C01E12CF12CB090910099
:100960006B2D70E080917F00681B7109882777FDEF
:100970008095982FA701960190D6B22FA32FF42F20
:10098000E52F2B2D30E040E050E06B2F7A2F8F2F9A
:100990009E2F5FD649015A018CE190E00FD7BC0130
:1009A00080E090E0A701960178D6B901CA01F0E194
:1009B0004F2EF7E25F2E612C712CA301920149D6D4
:1009C00029833A834B835C8329803A808EE190E0CF
:1009D000F5D6BC0180E090E0A70196015ED6B90192
:1009E000CA01A301920135D68D819E81821B930B92
:1009F00088199909F8949092A1008092A000281675
:100A0000390610F489819A81909394008093930021
:100A100011111AC0789426960FB6F894DEBF0FBE57
:100A2000CDBFDF91CF911F910F91FF90EF90DF909D
:100A3000CF90BF90AF909F908F907F906F905F907E
:100A40004F903F902F900895E091EC00F0E090914E
:100A50009F0090958081892380831093EC00009300
:100A60009F008FEF9FEF99BD88BD9BBD8ABDD2CF00
:100A7000CF93DF93C82F80917E00882331F0CC2361
:100A800011F08C1302C010927E00D0918000CD171F
:100A900009F419C1D1115DC0C0937E00D0917C00D2
:100AA000C430F0F08AE190E081D64C2F50E0282F3E
:100AB00030E02D5F3F4F241735071CF48D5F809386
:100AC0007E00D11100C180917D008150823078F18B
:100AD0008AE190E06BD6C3E0C80F8CE090E02FC0B5
:100AE00089E190E063D68C1710F480937E00D111D9
:100AF000EAC080917D008430D0F48091A50084FF0D
:100B000018C090917700911114C085FF07C088E349
:100B10008093900081E08093950001C0C09A81E0AD
:100B20008093770082E290E041D680937C00C0E021
:100B300009C089E190E03AD6C82F8AE090E036D625
:100B400080937C0080917C00811148C0C0917E0020
:100B500002C0C11103C010927E0040C0C43028F111
:100B6000D43098F58091A50084FF12C085FF0DC098
:100B7000E0919000F0E0909195009095808189231C
:100B800080838CE58093900001C0C098109277001C
:100B90008BE090E00BD680937C00882309F47CCF17
:100BA0008091800080937D000CC0D43070F08DE087
:100BB00090E0FCD580937C00882309F46DCFD0931E
:100BC0007D00C0937E00C0E009C080917E00882334
:100BD00029F0C0937E00C093720075C080917E00A2
:100BE0008C1304C010927C0010927E001092800042
:100BF0008091790081111AC080917800811116C00E
:100C00008091A50083FF12C085FF0DC0E091900088
:100C1000F0E09091950090958081892380838CE508
:100C20008093900001C0C09810927700CC2309F403
:100C30004AC08C2F90E08E5E9F4FB8D59091A50052
:100C400020919100C430D0F0281738F492FD02C0F2
:100C500060E801C061E0821B01C060E893FF28C02A
:100C600095FF07C098E39093900091E090939500D2
:100C700001C0C09A91E0909377001AC0281738F409
:100C800091FD02C062E001C061E0821B01C062E030
:100C900094FF10C095FF07C098E39093900091E0F7
:100CA0009093950001C0C09A91E09093770002C0A4
:100CB0009BE301C098E3C093720080937F00C093D0
:100CC0008000892F29DE80918000811121C08091D0
:100CD0007E0081111AC08091A50084FF12C085FF9B
:100CE0000DC0E0919000F0E090919500909580818A
:100CF000892380838CE58093900001C0C098109276
:100D0000770010927C0010928F0010927F0012C02A
:100D10008091780081110EC0C11102C0C0917E0087
:100D2000C43018F08FE090E002C08EE090E03ED535
:100D300080938F00DF91CF910895873008F498CE8B
:100D40000895CF93C82F89E190E030D5C81770F08F
:100D5000C43080F08AE190E029D52C2F30E0225079
:100D60003109482F50E04217530724F081E08C0FDF
:100D7000CF91E3CFCF910895843011F480E078CE05
:100D80008150DBCFCF93DF931F92CDB7DEB780E8E2
:100D900086BD16BC80E285BF8AB38C638ABB8AB3EA
:100DA00081688ABB87B3836087BB83E080BF8CE0A8
:100DB00083BF80EF86BF81E089BF1FBC8AE18EBD03
:100DC0008FE19EE495BD84BD2FEF3FEF3BBD2ABD73
:100DD00099BD88BD86E28CB98BB780628BBF88E0F5
:100DE00080BD8CE58093900085B7816085BF8BB70F
:100DF00080648BBF8AB780648ABF88E181BD8EE042
:100E000081BD80E190E0D2D4182F873010F0DEDC75
:100E100010E06FDD78944AE060E081E048D9812FEE
:100E20008CDF8091A50080FD0DC002E011E043E061
:100E3000D42E5CE5B52E98E3C92E2CE3F22E3AE0D1
:100E4000E32E51C083E090E0B1D424DA82E090E058
:100E5000ADD4FFD9811105C041E061E085E027D91B
:100E6000F5CF81E0ADD9E1CF811146C01092660087
:100E700080916A00811168C080918E00833009F4EE
:100E8000EBC080918500873008F0E2C18091A50019
:100E900080FFD1CF86E990E09DD9882361F200934D
:100EA0006D001093920090919900903C09F07FC2E0
:100EB0008091960090919700382F209198002E30C5
:100EC00009F423C2213009F0D3C187300CF0B3CF2D
:100ED00010927800898331DF39813111ACCF42E043
:100EE00062E083E0E4D88895A895909166008091AF
:100EF00089009813B9CFBCCF963408F0B9CF8930A8
:100F000028F4E92FF0E0E351FF4F06C0893051F09B
:100F1000E92FF0E0EA55FF4F90919A00908380937B
:100F20006600A6CFEDEEF0E0A6EAB0E021912D93A9
:100F300020E0E53FF207D1F7EEEAF0E0119220E081
:100F4000EC3EF207D9F7E4CF10926A008091670077
:100F500090916800019690936800809367008830B4
:100F6000974098F0109268001092670080918F006F
:100F7000882359F0815080938F00811106C08091A1
:100F80008000882311F080E073DD80917C0088234D
:100F900069F0815080937C00811108C080917E00AF
:100FA000882311F0CADE02C010927D0080917E007D
:100FB000882311F081E0F6DB809182008823D9F04C
:100FC0008091820081508093820081110CC08091B9
:100FD0007A00882341F010927A0010927B0043E05F
:100FE00063E085E064D880917A00882321F08091C5
:100FF0007B008F5FD7DB8091870081113DCF80918F
:10100000860010928600882309F436CF90917A00EA
:10101000923049F48091800090E060917F008E5E74
:101020009F4FD1D3D8CF853008F034C1833008F436
:1010300023CF80918000882309F41ECF4FE065E024
:1010400081E035D800937A0080917F008093720010
:101050008FEF8093820010CF10928E0040908C0012
:1010600050908D0050928B0040928A0080918900B0
:101070008093880085E290E099D369E09DD2782E34
:1010800040917A00413039F4809187008111D3CEAC
:1010900080917B00780E00936D001093920086E2A1
:1010A000882E80E0982EA12CA71409F49CC0C401BE
:1010B000498384D34981009709F490C0841595052C
:1010C00009F08CC08A2D69E091D2413061F4911110
:1010D00005C010928D0010928C008EC041E061E03E
:1010E00085E0E5D780C0911109C0809186008F5FAF
:1010F0008093860082E38093870075C0809187008B
:10110000882341F020918600222309F46CC08033AB
:1011100008F069C000938700913039F4423009F437
:101120005ACF1092790080E057C0809180008111E1
:1011300002C080917E00943091F410927800423089
:1011400049F480917F0090919100891708F004C1C3
:101150008F5FEEC0843088F584E290E011C0953056
:1011600091F410927800423039F480917F008230FF
:1011700008F4F2C08150DCC0843058F583E290E07E
:1011800015D3DBDD30C0963021F41092780084E076
:1011900023C0973021F41092780085E01DC098306C
:1011A00021F41092780086E017C0923051F442305A
:1011B00041F29FEF980F933010F4C3DD14C083E029
:1011C0000BC0933081F4423081F29FEF980F93303F
:1011D00010F4D2DD08C081E04BDC05C0A394F2E03E
:1011E0008F0E911C61CF80917A00813009F049CE39
:1011F000A71047CEE092870085E290E0D7D2A82ED4
:10120000E0918C00F0918D0090E069E070E0DDD11C
:1012100020917B00820F911D880F991FBF018A5D6D
:101220009F4FE3D280E0C5DA80917B00883030F4B4
:101230008F5F80937B00F092820023CEA3946A2D6F
:1012400085E290E0C0D229E02A1508F4C4CE22C07D
:1012500080918400833008F44BC010939200B299BF
:1012600019C0A895809184008730C8F3AFDA51C0C7
:10127000223009F451C0233009F463CF243009F43B
:1012800074CF253009F45EC0222309F469C02630EA
:1012900009F0D1CD41E061E083E009D78FE090E033
:1012A000F7D6109284001092850085E290E07ED2FD
:1012B000A82E89E08A1568F441E061E082E3F7D660
:1012C00080918500882309F4B6CD60E085E290E046
:1012D0007AD281E08A0D8295807F8093720010928D
:1012E0008E0010937A0010927B00F0928200CECD97
:1012F000B29BCCCD81E190E059D21FDDE09283001A
:101300001092840010928500C1CD8E3E9E4E09F051
:1013100092CDD19AF894FFCF80918000811102C0C4
:1013200080917E00313011F40CDDDDCD25DDDBCD8B
:1013300080937F0060E080E0EFDA80917F0080930F
:1013400072000AC080918000882331F090E06091A3
:101350007F008E5E9F4F37D28FEF80938200C3CD88
:10136000809379009091A500882369F093FF63CD65
:1013700095FF05C0C09290001093950001C0C09ADF
:1013800010937700B0CD93FF56CD95FF0CC0E09140
:101390009000F0E090919500909580818923808362
:1013A000B092900001C0C098109277009CCD9F32FF
:1013B00009F4B8C096FF7FC0892F807F292F2F7036
:1013C0008034B9F480919600909197008A3D910500
:1013D00008F031CD805090402983223011F4EED1B5
:1013E00002C0E4D190E09093970080939600298109
:1013F00030C0803591F4F894E0919600F091970018
:10140000223019F48081918102C0808190E0909314
:1014100097008093960078941CC0803609F00BCD1D
:10142000223059F4E0919600F091970085919491C3
:1014300090939700809396000CC0213051F4E09176
:101440009600F0919700E491F0E0F0939700E0931C
:10145000960081E090E029831BD680E0B1D62981F7
:101460002530E1F4A0E38A2EA0E09A2EF4018491C5
:1014700090E0909397008093960086E990E0C8D61C
:10148000A82E81110FC08FEFF9D5FFEF8F1A9F0A99
:1014900023E4821620E0920649F704C086E990E032
:1014A000B7D6A82E81E08CD6AA2009F4C4CC80E15E
:1014B0008A0D7FD918CD97FF38C080917600882398
:1014C00009F4B9CC892F80739F70803199F4F89416
:1014D000E0919800923041F48091960090919700AD
:1014E000F0E09183808304C0F0E0809196008083D7
:1014F000789418C0811116C080919800923049F4F8
:10150000609196007091970090E0805090406DD16E
:1015100006C090E0609196008050904054D1E9D987
:1015200082E047D9D0927600DECC80918F00811185
:1015300082CC80917A0081117ECC80909600909030
:10154000970088E090E03AD18815990578F086E018
:1015500090E034D18815990558F084E090E02ED1C0
:1015600021E08815990528F020E003C023E001C0A0
:1015700022E080918000281709F45DCC90917800DA
:1015800091110AC090918100911155CC811153CCD9
:1015900080917E0081114FCC10937800822F298397
:1015A000CCDB2981211102C0109278008BE190E000
:1015B000FDD08093810097CC002480FD060E660F3D
:1015C00011F08695D1F7802D08950024552704C089
:1015D000080E591F880F991F009729F07695679577
:1015E000B8F37105B9F7802D952F0895991B79E00F
:1015F00004C0991F961708F0961B881F7A95C9F7A3
:1016000080950895AA1BBB1B51E107C0AA1FBB1FF1
:10161000A617B70710F0A61BB70B881F991F5A957E
:10162000A9F780959095BC01CD01089597FB072EF1
:1016300016F4009406D077FD08D0E4DF07FC05D04F
:101640003EF4909581959F4F0895709561957F4FD9
:101650000895A1E21A2EAA1BBB1BFD010DC0AA1FF3
:10166000BB1FEE1FFF1FA217B307E407F50720F00B
:10167000A21BB30BE40BF50B661F771F881F991F86
:101680001A9469F760957095809590959B01AC01CF
:10169000BD01CF01089568940013E894A0E0B0E084
:1016A000E3E5FBE01DC0EFEFE7F959016A015E23B6
:1016B000550FEE08FE2C87019B01AC019E23990F6C
:1016C000660B762FCB013BD0CDB7DEB7EAE024C066
:1016D0002F923F924F925F926F927F928F929F9242
:1016E000AF92BF92CF92DF92EF92FF920F931F9330
:1016F000CF93DF93CDB7DEB7CA1BDB0B0FB6F894E1
:10170000DEBF0FBECDBF09942A88398848885F8420
:101710006E847D848C849B84AA84B984C884DF8091
:10172000EE80FD800C811B81AA81B981CE0FD11D75
:101730000FB6F894DEBF0FBECDBFED010895DF9365
:10174000CF939F92A0E49A2E0024D001E001F001F3
:1017500016950795F794E794D794C794B794A794F0
:1017600048F41068A20FB31FC41FD51FE61FF71F50
:10177000081E191E220F331F441F551F661F771F97
:10178000881F991F9A9421F79D01AE01BF01C001E6
:1017900011249F90CF91DF910895FB01DC0102C0DD
:1017A00005900D9241505040D8F70895E199FECF31
:1017B0009FBB8EBBE09A99278DB30895A8E1B0E056
:1017C00042E050E018C0262FE199FECF9FBB8EBBB0
:1017D000E09A01970DB2021639F01CBA2DBB0FB674
:1017E000F894E29AE19A0FBE08950196272FECDF54
:1017F000EACFDC01CB01FC01E199FECF06C0FFBBC3
:10180000EEBBE09A31960DB20D9241505040B8F7C0
:061810000895F894FFCFDB
:061816000F270F270F272A
:00000001FF
