:1000000021C044C33AC0FDC138C059C21DC239C263
:1000100034C033C032C006C354C12FC02EC02DC05F
:100020002CC0C8C82301240F260721012201310456
:1000300046616E204B69746368656E207632204499
:10004000494D000011241FBECFE5D2E0DEBFCDBF79
:1000500010E0A0E6B0E0EEE6F7E102C005900D92F8
:10006000A636B107D9F720E0A6E6B0E001C01D92A0
:10007000A53AB207E1F770D678CBC2CF882331F02A
:100080009AE19A95F1F700C08150F8CFA8950895AC
:10009000009761F02FEF30E742E0215030404040C0
:1000A000E1F700C00000A8950197F2CF0895EF9204
:1000B000FF920F931F93CF93DF93F82E062F10E03C
:1000C000EE24E394C42FD0E010929000FF2041F082
:1000D000C801DEDFE0929000CE01DADFFA94F4CFBF
:1000E000DF91CF911F910F91FF90EF9008958FB9FD
:1000F00080E48EB98BE18DB9769BFDCF8FB10895E9
:10010000DB988F71F4DF8FEFF2DFDB9A0895EF92C7
:10011000FF921F93CF93DF9300D0CDB7DEB7142F9C
:10012000DB9869837A83E3DF6981E62E7A81F72E93
:10013000160F1E1531F08FEFDADFF70181937F0183
:10014000F8CFDB9A0F900F90DF91CF911F91FF9026
:10015000EF900895CF93DF931F92CDB7DEB7DB9872
:100160006983C5DF6981862FC2DFDB9A0F90DF913B
:10017000CF910895EF92FF921F93CF93DF9300D01A
:10018000CDB7DEB7142FDB9869837A83B0DF69813E
:10019000E62E7A81F72E160F1E1529F0F7018191B0
:1001A0007F01A5DFF9CFDB9A0F900F90DF91CF9100
:1001B0001F91FF90EF900895DB9899DFDB9A0895E7
:1001C000CF93C82F682F6E6780E2C4DFC0FDDA9A34
:1001D000CF9108951F93CF93DF93EC018FEFECDF66
:1001E000182F86FF0CC044E0BE0181E690DF60E777
:1001F00087E2B0DF812F869587708F5F05C087E12A
:100200007FDF80FFF0CF80E0DF91CF911F910895D5
:10021000CF93DF93EC01DA9860E787E29BDF44E05D
:10022000BE0180EAA7DFDA9AC0E08AE027DF8FEF1D
:10023000C3DF85FD0AC084FF04C081EEBDDF81E01D
:1002400005C0C15091F782E001C080E0DF91CF91FD
:100250000895CF93C82F8093990042E050E062E266
:1002600070E08AE990E045DA43E069E970E08AE20B
:1002700081DF43E069E970E080E37CDF43E069E926
:1002800070E080E144DF81E0909199009C1380E070
:10029000CF9108951F93CF93DF93182FDB9AC4E279
:1002A000D0E0FE0184913196649154DF2296F0E013
:1002B000C033DF07B1F7612F85E2DF91CF911F9146
:1002C00049CF1F920F920FB60F9211242F933F9395
:1002D0004F935F936F937F938F939F93EF93FF93CE
:1002E00080917E0090918F00891308C0E091A40056
:1002F000F0E0808190919D00892B33C0882319F113
:100300001092720080919E0090919F002091A00019
:100310003091A100820F931F80322EE4920710F0DB
:100320008E519E449BBD8ABD2091910030919200D8
:10033000280F391F20328EE4380710F02E513E442A
:1003400039BD28BD0FC08FEF9FEF9BBD8ABD99BD02
:1003500088BDE091A400F0E090919D00909580818F
:10036000892380837894409160005091610050937C
:100370006300409362002091A0003091A100609141
:10038000730070917400C9012617370710F4815E5D
:10039000914B861B970B90936100809360004817E8
:1003A000590708F4CA019093650080936400309364
:1003B00074002093730080918E00882399F08091BF
:1003C000A200882379F09AE19A95F1F700C0815054
:1003D000D1F7E0918E00F0E09091930090958081AC
:1003E00089238083FF91EF919F918F917F916F91EE
:1003F0005F914F913F912F910F900FBE0F901F90E3
:1004000018951F920F920FB60F9211248F939F93FE
:10041000EF93FF93E0918E00F0E080819091930044
:10042000892B80838CB59DB59093A1008093A0000B
:10043000ECE0F0E00995FF91EF919F918F910F9083
:100440000FBE0F901F9018951F920F920FB60F922C
:1004500011248F939F93EF93FF93E091A400F0E01A
:10046000808190919D00892B80838FEF8BBD8ABD09
:10047000FF91EF919F918F910F900FBE0F901F9062
:1004800018951F920F920FB60F9211248F939F937E
:10049000EF93FF93E091A400F0E090919D00909580
:1004A0008081892380838FEF89BD88BDFF91EF9183
:1004B0009F918F910F900FBE0F901F901895789479
:1004C0001F920F920FB60F9211248F939F938091DA
:1004D0006B008F5F80936B00853008F47FC01092B3
:1004E0006B0080916A008F5F80936A008A30B8F059
:1004F00010926A0081E080936900809168008F5FAC
:10050000809368008C3358F01092680080918000CE
:10051000882329F080918000815080938000809111
:100520006C00882341F0815080936C00811148C099
:100530001092900045C080917000882339F091E0BE
:10054000909390008150809370003AC080916F002A
:10055000882321F01092900081500FC080916E008E
:10056000882371F0815080936E009EE0909370001C
:10057000811102C086E00EC084E080936F0020C02D
:1005800080916D00882371F0815080936D0083E02D
:100590008093700080936F0080916D00811110C076
:1005A00089E1EBCF80917100882351F0982F9295CB
:1005B0009F7090936E008F7080936D001092710009
:1005C00080918500882319F0815080938500809167
:1005D0007500882319F08150809375008091820006
:1005E000882319F0815080938200809190008823A5
:1005F00011F0D99A0FC080917E00811108C08091BE
:100600007600811104C0D89902C0C09B02C0D19865
:1006100002C0D998D19A9F918F910F900FBE0F90E1
:100620001F9018951F920F920FB60F9211248F935F
:1006300080918C00823041F480918700893030F0C5
:1006400083E080938C0004C0813011F410928C0000
:1006500080918C008330A1F0B2990CC0809182000F
:1006600081110EC0809183008F3F51F08F5F809386
:10067000830006C080918300853010F410928300BF
:100680008F910F900FBE0F901F9018951F920F9291
:100690000FB60F9211242F933F934F935F936F9355
:1006A0007F938F939F93EF93FF9380918C00833080
:1006B00008F053C042B712BE80918C00811102C075
:1006C00081E049C0813061F41092870085E095E1B6
:1006D00090938B0080938A004093980082E03BC007
:1006E000E42FF0E02091980030E0C90163E070E071
:1006F0002BD79595879595958795E817F9076CF011
:10070000CF0163E070E020D7959587959595879503
:100710002817390724F452E003C051E001C050E02B
:1007200020918A0030918B00C90165E0880F991FE4
:100730006A95E1F7820F931F852790938B00809332
:100740008A0040939800809187008F5F8093870094
:10075000811103C083E080938C00FF91EF919F9102
:100760008F917F916F915F914F913F912F910F905A
:100770000FBE0F901F90189590917100911102C0BB
:1007800080937100089510926F0010927000109283
:100790006D0010926E008093710010929000089589
:1007A000CF93DF9365E381E090E0B9D761EC82E01D
:1007B00090E0B5D76AE783E090E0B1D760E080E1F0
:1007C00090E0ADD760E085E290E0A9D764E373E004
:1007D00084E090E0B6D76EE873E086E090E0B1D7B1
:1007E00068EE73E088E090E0ACD761E08AE090E0EA
:1007F00096D764E68BE090E092D760E08DE090E0E1
:100800008ED763E08CE090E08AD764E18EE090E0E0
:1008100086D766E08FE090E082D766E081E190E0E5
:100820007ED763E089E190E07AD763E08AE190E0E7
:1008300076D764E182E190E072D76DE083E190E0E9
:100840006ED76FE084E190E06AD764E185E190E0E3
:1008500066D76EE086E190E062D764E187E190E0E0
:100860005ED768E288E190E05AD766E077E28CE1F3
:1008700090E067D764E670E08EE190E062D765E0D3
:100880008BE190E04CD760E070E080E290E059D7D7
:100890006CE382E290E043D765E083E290E03FD7EB
:1008A00066E084E290E03BD7C0E0D0E060E070E03A
:1008B000CE018A5D9F4F45D72296C43BD105B1F743
:1008C000DF91CF91089581E090E01CD78093A30041
:1008D00082E190E017D780938F0080E290E01AD7F2
:1008E0006AE070E04ED66093A20008952F923F9286
:1008F0004F925F926F927F928F929F92AF92BF9230
:10090000CF92DF92EF92FF920F931F93CF93DF93DB
:1009100000D000D000D0CDB7DEB7182F062F8091C1
:100920006400909165009E838D836C01E12CF12C15
:10093000B0908F006B2D70E080917E00681B710974
:10094000882777FD8095982FA701960152D6B22F60
:10095000A32FF42FE52F2B2D30E040E050E06B2F3C
:100960007A2F8F2F9E2F21D649015A018CE190E0DA
:10097000D1D6BC0180E090E0A70196013AD6B9013A
:10098000CA01E0E14E2EE7E25E2E612C712CA3013C
:1009900092010BD629833A834B835C8329803A806A
:1009A0008EE190E0B7D6BC0180E090E0A70196010F
:1009B00020D6B901CA01A3019201F7D58D819E818C
:1009C000821B930B88199909F89490929F0080924A
:1009D0009E002816390610F489819A81909392001E
:1009E0008093910011111AC0789426960FB6F8944E
:1009F000DEBF0FBECDBFDF91CF911F910F91FF9052
:100A0000EF90DF90CF90BF90AF909F908F907F90AE
:100A10006F905F904F903F902F900895E091A400C9
:100A2000F0E090919D0090958081892380831093C0
:100A3000A40000939D008FEF9FEF99BD88BD9BBDE3
:100A40008ABDD2CFCF93DF93C82F80917D008823BA
:100A500031F0CC2311F08C1302C010927D00D091A4
:100A60007F00CD1709F419C1D1115DC0C0937D007D
:100A7000D0917B00C430F0F08AE190E043D64C2F57
:100A800050E0282F30E02D5F3F4F241735071CF42E
:100A90008D5F80937D00D11100C180917C008150D9
:100AA000823078F18AE190E02DD6C3E0C80F8CE067
:100AB00090E02FC089E190E025D68C1710F4809348
:100AC0007D00D111EAC080917C008430D0F4809107
:100AD000A30084FF18C090917600911114C085FF87
:100AE00007C088E380938E0081E08093930001C06B
:100AF000C09A81E08093760082E290E003D68093F2
:100B00007B00C0E009C089E190E0FCD5C82F8AE0F5
:100B100090E0F8D580937B0080917B00811148C0E4
:100B2000C0917D0002C0C11103C010927D0040C081
:100B3000C43028F1D43098F58091A30084FF12C00E
:100B400085FF0DC0E0918E00F0E0909193009095AC
:100B50008081892380838CE580938E0001C0C098BA
:100B6000109276008BE090E0CDD580937B008823B7
:100B700009F47CCF80917F0080937C000CC0D4303E
:100B800070F08DE090E0BED580937B00882309F45F
:100B90006DCFD0937C00C0937D00C0E009C08091F0
:100BA0007D00882329F0C0937D00C093710075C03B
:100BB00080917D008C1304C010927B0010927D0008
:100BC00010927F008091780081111AC08091770087
:100BD000811116C08091A30083FF12C085FF0DC054
:100BE000E0918E00F0E090919300909580818923B0
:100BF00080838CE580938E0001C0C09810927600AF
:100C0000CC2309F44AC08C2F90E08E5E9F4F7AD59A
:100C10009091A30020918F00C430D0F0281738F4B1
:100C200092FD02C060E801C061E0821B01C060E883
:100C300093FF28C095FF07C098E390938E0091E042
:100C40009093930001C0C09A91E0909376001AC0EF
:100C5000281738F491FD02C062E001C061E0821BF8
:100C600001C062E094FF10C095FF07C098E3909325
:100C70008E0091E09093930001C0C09A91E0909310
:100C8000760002C09BE301C098E3C093710080939B
:100C90007E00C0937F00892F29DE80917F00811123
:100CA00021C080917D0081111AC08091A30084FF32
:100CB00012C085FF0DC0E0918E00F0E0909193008E
:100CC00090958081892380838CE580938E0001C07C
:100CD000C0981092760010927B0010928D001092B6
:100CE0007E0012C08091770081110EC0C11102C038
:100CF000C0917D00C43018F08FE090E002C08EE01B
:100D000090E000D580938D00DF91CF9108958730DA
:100D100008F498CE0895CF93C82F89E190E0F2D4DB
:100D2000C81770F0C43080F08AE190E0EBD42C2F2B
:100D300030E022503109482F50E04217530724F089
:100D400081E08C0FCF91E3CFCF910895843011F4DF
:100D500080E078CE8150DBCFCF93DF931F92CDB769
:100D6000DEB780E886BD16BC80E285BF8AB38C639F
:100D70008ABB8AB381688ABB87B3836087BB83E001
:100D800080BF8DE083BF8BE986BF81E089BF1FBC38
:100D90008AE18EBD8FE19EE495BD84BD2FEF3FEFCC
:100DA0003BBD2ABD99BD88BD86E28CB98BB78062F8
:100DB0008BBF88E080BD8CE580938E0085B7816015
:100DC00085BF8BB780648BBF8AB780648ABF88E198
:100DD00081BD8EE081BD80E190E094D4182F8730F2
:100DE00010F0DEDC10E06FDD78944AE060E081E036
:100DF0005ED9812F8CDF8091A30080FD0DC09CE324
:100E0000E92E02E011E023E0D22E3CE5C32E48E3B8
:100E1000B42E8AE0F82E6CC083E090E073D43ADA06
:100E200082E090E06FD415DA811105C041E061E005
:100E300085E03DD9F5CF81E0C3D9E1CF10926900BB
:100E4000809166009091670001969093670080936F
:100E500066008830974008F053C080917B00811174
:100E600065C080917D00882311F080E185DC809150
:100E70008100811169C080918500882309F481C0B7
:100E800080918C00833009F4A9C080918300853063
:100E900008F0A0C18091A30080FFBBCF84E990E05F
:100EA00099D9882309F4B5CF00936C001093900072
:100EB00090919700903C09F039C2809194009091F4
:100EC0009500382F209196002E3009F4DDC1213095
:100ED00009F091C187300CF09CCF10927700898384
:100EE00016DF3981311195CF42E062E083E0DFD82F
:100EF0008895A89580916900882309F4C1CF9ECF79
:100F0000109267001092660080918D00882309F48A
:100F1000A4CF815080938D0081119FCF80917F005D
:100F2000882309F49ACF80E08DDD97CF815080939C
:100F30007B00811196CF80917D00882311F0E7DE40
:100F400090CF10927C008DCF809181008150809352
:100F5000810081110CC080917900882341F01092AA
:100F6000790010927A0043E063E085E0A0D8809198
:100F70007900882309F47FCF80917A008F5FFCDBB2
:100F80007ACF8091840010928400882309F478CF6E
:100F900090917900923049F480917F0090E06091C7
:100FA0007E008E5E9F4FBBD3DACF853008F035C10F
:100FB000833008F465CF80917F00882309F460CFE7
:100FC0004FE065E081E073D80093790080917E0066
:100FD000809371008FEF8093810052CF10928C002C
:100FE00040908A0050908B00509289004092880077
:100FF000809187008093860085E290E083D369E04A
:101000009AD2782E40917900413039F48091850050
:101010008111FFCE80917A00780E00936C001093BE
:101020009000B6E28B2EB0E09B2EA12CA71409F401
:101030009CC0C40149836ED34981009709F490C0D4
:101040008415950509F08CC08A2D69E08ED2413057
:1010500061F4911105C010928B0010928A008EC02D
:1010600041E061E085E023D880C0911109C0809102
:1010700084008F5F8093840082E38093850075C035
:1010800080918500882341F020918400222309F477
:101090006CC0803308F069C000938500913039F44A
:1010A000423009F45CCF1092780080E057C0809104
:1010B0007F00811102C080917D00943091F41092E4
:1010C0007700423049F480917E0090918F0089171B
:1010D00008F001C18F5FEBC0843088F584E290E0B6
:1010E00011C0953091F410927700423039F480911C
:1010F0007E00823008F4EFC08150D9C0843058F5AA
:1011000083E290E0FFD203DE30C0963021F41092EB
:10111000770084E023C0973021F41092770085E0B7
:101120001DC0983021F41092770086E017C09230ED
:1011300051F4423041F29FEF980F933010F4EBDD01
:1011400014C083E00BC0933081F4423081F29FEFF2
:10115000980F933010F4FADD08C081E073DC05C00D
:10116000A39482E0880E911C61CF80917900813038
:1011700009F08BCEA71089CEF092850085E290E031
:10118000C1D2A82EE0918A00F0918B0090E069E036
:1011900070E0DAD120917A00820F911D880F991F9B
:1011A000BF018A5D9F4FCDD280E0EDDA80917A0059
:1011B000883030F48F5F80937A00E092810065CEB2
:1011C000A3946A2D85E290E0AAD2E9E0EA1508F43A
:1011D000C6CE23C0883C08F44CC0109390001093F6
:1011E0008300B29902C0A895FCCF809183008F3F05
:1011F000A1F4D6DA4DC0223009F44DC0233009F4F1
:1012000062CF243009F473CF253009F45AC0222369
:1012100009F465C0263009F0FCCD41E061E083E0CF
:1012200046D78FE090E034D71092830085E290E0BB
:1012300069D2A82EF9E0F81768F441E061E082E392
:1012400036D780918300882309F4E3CD60E085E2FE
:1012500090E065D281E08A0D8295807F8093710055
:1012600010928C001093790010927A00E092810025
:1012700011CEB29B0FCE81E190E044D248DDF092D6
:1012800082001092830006CE8E3E9E4E09F0C1CDA4
:10129000D19AF894FFCF80917F00811102C0809194
:1012A0007D00313011F437DD23CE50DD21CE809327
:1012B0007E0060E080E01ADB80917E008093710008
:1012C0000AC080917F00882331F090E060917E0019
:1012D0008E5E9F4F24D28FEF8093810009CE809342
:1012E00078009091A300882369F093FF92CD95FF39
:1012F00005C0B0928E001093930001C0C09A109365
:101300007600F6CD93FF85CD95FF0CC0E0918E0061
:10131000F0E0909193009095808189238083C09222
:101320008E0001C0C09810927600E2CD9F3209F481
:10133000B8C096FF7FC0892F807F292F2F708034FF
:10134000B9F480919400909195008A3D910508F040
:1013500060CD805090402983223011F4DBD102C04F
:10136000D1D190E09093950080939400298130C072
:10137000803591F4F894E0919400F091950022303A
:1013800019F48081918102C0808190E09093950052
:101390008093940078941CC0803609F03ACD2230B6
:1013A00059F4E0919400F091950085919491909377
:1013B0009500809394000CC0213051F4E09194008A
:1013C000F0919500E491F0E0F0939500E0939400A3
:1013D00081E090E029835CD680E0F2D62981253037
:1013E000E1F4F0E38F2EF0E09F2EF401849190E081
:1013F000909395008093940084E990E009D7A82EFB
:1014000081110FC08FEF3AD6FFEF8F1A9F0A23E4A6
:10141000821620E0920649F704C084E990E0F8D6ED
:10142000A82E81E0CDD6AA2009F4F3CC80E18A0D64
:10143000AAD95ECD97FF38C080917500882309F442
:10144000E8CC892F80739F70803199F4F894E091F3
:101450009600923041F48091940090919500F0E0D4
:101460009183808304C0F0E080919400808378941D
:1014700018C0811116C080919600923049F4609195
:1014800094007091950090E0805090405AD106C031
:1014900090E0609194008050904041D114DA82E055
:1014A00072D9D092750024CD80918D008111B1CC7C
:1014B000809179008111ADCC80909400909095003E
:1014C00088E090E027D18815990578F086E090E0D3
:1014D00021D18815990558F084E090E01BD121E0D6
:1014E0008815990528F020E003C023E001C022E020
:1014F00080917F00281709F48CCC9091770091118E
:101500000AC090918000911184CC811182CC80918D
:101510007D0081117ECC10937700822F2983F7DB29
:101520002981211102C0109277008BE190E0EAD06E
:1015300080938000DDCC002480FD060E660F11F044
:101540008695D1F7802D08950024552704C0080EF4
:10155000591F880F991F009729F076956795B8F362
:101560007105B9F7802D952F0895991B79E004C076
:10157000991F961708F0961B881F7A95C9F78095D2
:101580000895AA1BBB1B51E107C0AA1FBB1FA617CA
:10159000B70710F0A61BB70B881F991F5A95A9F71C
:1015A00080959095BC01CD010895A1E21A2EAA1B49
:1015B000BB1BFD010DC0AA1FBB1FEE1FFF1FA21703
:1015C000B307E407F50720F0A21BB30BE40BF50B00
:1015D000661F771F881F991F1A9469F76095709589
:1015E000809590959B01AC01BD01CF010895689451
:1015F0000013E894A0E0B0E0EFEFFAE01DC0EFEFD9
:10160000E7F959016A015E23550FEE08FE2C8701A8
:101610009B01AC019E23990F660B762FCB013BD02B
:10162000CDB7DEB7EAE024C02F923F924F925F928F
:101630006F927F928F929F92AF92BF92CF92DF92E2
:10164000EF92FF920F931F93CF93DF93CDB7DEB747
:10165000CA1BDB0B0FB6F894DEBF0FBECDBF0994DB
:101660002A88398848885F846E847D848C849B8432
:10167000AA84B984C884DF80EE80FD800C811B8140
:10168000AA81B981CE0FD11D0FB6F894DEBF0FBE6F
:10169000CDBFED010895DF93CF939F92A0E49A2EE2
:1016A0000024D001E001F00116950795F794E79426
:1016B000D794C794B794A79448F41068A20FB31FA7
:1016C000C41FD51FE61FF71F081E191E220F331F48
:1016D000441F551F661F771F881F991F9A9421F773
:1016E0009D01AE01BF01C00111249F90CF91DF91F8
:1016F0000895FB01DC0102C005900D92415050405D
:10170000D8F70895E199FECF9FBB8EBBE09A992749
:101710008DB30895A8E1B0E042E050E018C0262F54
:10172000E199FECF9FBB8EBBE09A01970DB20216E6
:1017300039F01CBA2DBB0FB6F894E29AE19A0FBEAD
:1017400008950196272FECDFEACFDC01CB01FC01E5
:10175000E199FECF06C0FFBBEEBBE09A31960DB219
:0E1760000D9241505040B8F70895F894FFCF15
:06176E000F270F270F27D3
:00000001FF
