:1000000021C04EC33AC0FDC138C059C21DC239C259
:1000100034C033C032C006C354C12FC02EC02DC05F
:100020002CC0C8C82301240F260721012201310456
:1000300046616E204B69746368656E207632204499
:10004000494D000011241FBECFE5D2E0DEBFCDBF79
:1000500010E0A0E6B0E0E6E8F7E102C005900D92FE
:10006000A636B107D9F720E0A6E6B0E001C01D92A0
:10007000A63AB207E1F77AD684CBC2CF882331F013
:100080009AE19A95F1F700C08150F8CFA8950895AC
:10009000009761F02FEF30E742E0215030404040C0
:1000A000E1F700C00000A8950197F2CF0895EF9204
:1000B000FF920F931F93CF93DF93F82E062F10E03C
:1000C000EE24E394C42FD0E010929100FF2041F081
:1000D000C801DEDFE0929100CE01DADFFA94F4CFBE
:1000E000DF91CF911F910F91FF90EF9008958FB9FD
:1000F00080E48EB98BE18DB9769BFDCF8FB10895E9
:10010000DB988F71F4DF8FEFF2DFDB9A0895EF92C7
:10011000FF921F93CF93DF9300D0CDB7DEB7142F9C
:10012000DB9869837A83E3DF6981E62E7A81F72E93
:10013000160F1E1531F08FEFDADFF70181937F0183
:10014000F8CFDB9A0F900F90DF91CF911F91FF9026
:10015000EF900895CF93DF931F92CDB7DEB7DB9872
:100160006983C5DF6981862FC2DFDB9A0F90DF913B
:10017000CF910895EF92FF921F93CF93DF9300D01A
:10018000CDB7DEB7142FDB9869837A83B0DF69813E
:10019000E62E7A81F72E160F1E1529F0F7018191B0
:1001A0007F01A5DFF9CFDB9A0F900F90DF91CF9100
:1001B0001F91FF90EF900895DB9899DFDB9A0895E7
:1001C000CF93C82F682F6E6780E2C4DFC0FDDA9A34
:1001D000CF9108951F93CF93DF93EC018FEFECDF66
:1001E000182F86FF0CC044E0BE0181E690DF60E777
:1001F00087E2B0DF812F869587708F5F05C087E12A
:100200007FDF80FFF0CF80E0DF91CF911F910895D5
:10021000CF93DF93EC01DA9860E787E29BDF44E05D
:10022000BE0180EAA7DFDA9AC0E08AE027DF8FEF1D
:10023000C3DF85FD0AC084FF04C081EEBDDF81E01D
:1002400005C0C15091F782E001C080E0DF91CF91FD
:100250000895CF93C82F80939A0042E050E062E265
:1002600070E08BE990E051DA43E06AE970E08AE2FD
:1002700081DF43E06AE970E080E37CDF43E06AE924
:1002800070E080E144DF81E090919A009C1380E06F
:10029000CF9108951F93CF93DF93182FDB9AC4E279
:1002A000D0E0FE0184913196649154DF2296F0E013
:1002B000C033DF07B1F7612F85E2DF91CF911F9146
:1002C00049CF1F920F920FB60F9211242F933F9395
:1002D0004F935F936F937F938F939F93EF93FF93CE
:1002E00080917E0090919000891308C0E091A50054
:1002F000F0E0808190919E00892B33C0882319F112
:100300001092720080919F009091A0002091A10016
:100310003091A200820F931F80322EE4920710F0DA
:100320008E519E449BBD8ABD2091920030919300D6
:10033000280F391F20328EE4380710F02E513E442A
:1003400039BD28BD0FC08FEF9FEF9BBD8ABD99BD02
:1003500088BDE091A500F0E090919E00909580818D
:10036000892380837894409160005091610050937C
:100370006300409362002091A1003091A20060913F
:10038000730070917400C9012617370710F4815E5D
:10039000914B861B970B90936100809360004817E8
:1003A000590708F4CA019093650080936400309364
:1003B00074002093730080918F00882399F08091BE
:1003C000A300882379F09AE19A95F1F700C0815053
:1003D000D1F7E0918F00F0E09091940090958081AA
:1003E00089238083FF91EF919F918F917F916F91EE
:1003F0005F914F913F912F910F900FBE0F901F90E3
:1004000018951F920F920FB60F9211248F939F93FE
:10041000EF93FF93E0918F00F0E080819091940042
:10042000892B80838CB59DB59093A2008093A10009
:10043000ECE0F0E00995FF91EF919F918F910F9083
:100440000FBE0F901F9018951F920F920FB60F922C
:1004500011248F939F93EF93FF93E091A500F0E019
:10046000808190919E00892B80838FEF8BBD8ABD08
:10047000FF91EF919F918F910F900FBE0F901F9062
:1004800018951F920F920FB60F9211248F939F937E
:10049000EF93FF93E091A500F0E090919E0090957E
:1004A0008081892380838FEF89BD88BDFF91EF9183
:1004B0009F918F910F900FBE0F901F901895789479
:1004C0001F920F920FB60F9211248F939F938091DA
:1004D0006B008F5F80936B00853008F47FC01092B3
:1004E0006B0080916A008F5F80936A008A30B8F059
:1004F00010926A0081E080936900809168008F5FAC
:10050000809368008C3358F01092680080918000CE
:10051000882329F080918000815080938000809111
:100520006C00882341F0815080936C00811148C099
:100530001092910045C080917000882339F091E0BD
:10054000909391008150809370003AC080916F0029
:10055000882321F01092910081500FC080916E008D
:10056000882371F0815080936E009EE0909370001C
:10057000811102C086E00EC084E080936F0020C02D
:1005800080916D00882371F0815080936D0083E02D
:100590008093700080936F0080916D00811110C076
:1005A00089E1EBCF80917100882351F0982F9295CB
:1005B0009F7090936E008F7080936D001092710009
:1005C00080918600882319F0815080938600809165
:1005D0007500882319F08150809375008091820006
:1005E000882319F0815080938200809191008823A4
:1005F00011F0D99A0FC080917E00811108C08091BE
:100600007600811104C0D89902C0C09B02C0D19865
:1006100002C0D998D19A9F918F910F900FBE0F90E1
:100620001F9018951F920F920FB60F9211248F935F
:1006300080918D00823041F480918800893030F0C3
:1006400083E080938D0004C0813011F410928D00FE
:1006500080918D008330F1F0B29914C080918200B6
:10066000811118C0809184008F5F809384008F3F38
:1006700089F4809183008F5F8093830087E080936B
:10068000840008C080918400873020F41092830099
:10069000109284008F910F900FBE0F901F901895AD
:1006A0001F920F920FB60F9211242F933F934F93E7
:1006B0005F936F937F938F939F93EF93FF938091BB
:1006C0008D00833008F053C042B712BE80918D0078
:1006D000811102C081E049C0813061F4109288002C
:1006E00085E095E190938C0080938B004093990076
:1006F00082E03BC0E42FF0E02091990030E0C90196
:1007000063E070E02DD79595879595958795E817C7
:10071000F9076CF0CF0163E070E022D795958795DB
:10072000959587952817390724F452E003C051E0C6
:1007300001C050E020918B0030918C00C90165E030
:10074000880F991F6A95E1F7820F931F8527909371
:100750008C0080938B0040939900809188008F5F7C
:1007600080938800811103C083E080938D00FF9106
:10077000EF919F918F917F916F915F914F913F91F9
:100780002F910F900FBE0F901F90189590917100B0
:10079000911102C080937100089510926F00109221
:1007A000700010926D0010926E0080937100109294
:1007B00091000895CF93DF9365E381E090E0BBD78C
:1007C00061EC82E090E0B7D76AE783E090E0B3D7CE
:1007D00060E080E190E0AFD760E085E290E0ABD7E9
:1007E00064E373E084E090E0B8D76EE873E086E0FD
:1007F00090E0B3D768EE73E088E090E0AED761E0B8
:100800008AE090E098D764E68BE090E094D760E0CF
:100810008DE090E090D763E08CE090E08CD764E1CD
:100820008EE090E088D766E08FE090E084D766E0C5
:1008300081E190E080D763E089E190E07CD763E0DC
:100840008AE190E078D764E182E190E074D76DE0CE
:1008500083E190E070D76FE084E190E06CD764E1D1
:1008600085E190E068D76EE086E190E064D764E1CE
:1008700087E190E060D768E288E190E05CD766E0CD
:1008800077E28CE190E069D764E670E08EE190E079
:1008900064D765E08BE190E04ED760E070E080E2E5
:1008A00090E05BD76CE382E290E045D765E083E2BD
:1008B00090E041D766E084E290E03DD7C0E0D0E030
:1008C00060E070E0CE018A5D9F4F47D72296C43B1F
:1008D000D105B1F7DF91CF91089581E090E01ED767
:1008E0008093A40082E190E019D78093900080E289
:1008F00090E01CD76AE070E050D66093A3000895A2
:100900002F923F924F925F926F927F928F929F921F
:10091000AF92BF92CF92DF92EF92FF920F931F930D
:10092000CF93DF9300D000D000D0CDB7DEB7182F23
:10093000062F80916400909165009E838D836C01E9
:10094000E12CF12CB09090006B2D70E080917E0036
:10095000681B7109882777FD8095982FA70196015C
:1009600054D6B22FA32FF42FE52F2B2D30E040E0EB
:1009700050E06B2F7A2F8F2F9E2F23D649015A01DB
:100980008CE190E0D3D6BC0180E090E0A701960115
:100990003CD6B901CA01E0E14E2EE7E25E2E612CA1
:1009A000712CA30192010DD629833A834B835C837A
:1009B00029803A808EE190E0B9D6BC0180E090E0D9
:1009C000A701960122D6B901CA01A3019201F9D566
:1009D0008D819E81821B930B88199909F8949092BE
:1009E000A00080929F002816390610F489819A8110
:1009F000909393008093920011111AC078942696D8
:100A00000FB6F894DEBF0FBECDBFDF91CF911F911F
:100A10000F91FF90EF90DF90CF90BF90AF909F909D
:100A20008F907F906F905F904F903F902F900895A0
:100A3000E091A500F0E090919E009095808189233F
:100A400080831093A50000939E008FEF9FEF99BDC8
:100A500088BD9BBD8ABDD2CFCF93DF93C82F809135
:100A60007D00882331F0CC2311F08C1302C010924A
:100A70007D00D0917F00CD1709F419C1D1115DC05F
:100A8000C0937D00D0917B00C430F0F08AE190E00B
:100A900045D64C2F50E0282F30E02D5F3F4F2417D4
:100AA00035071CF48D5F80937D00D11100C18091CA
:100AB0007C008150823078F18AE190E02FD6C3E04B
:100AC000C80F8CE090E02FC089E190E027D68C170A
:100AD00010F480937D00D111EAC080917C008430B5
:100AE000D0F48091A40084FF18C0909176009111F9
:100AF00014C085FF07C088E380938F0081E0809356
:100B0000940001C0C09A81E08093760082E290E078
:100B100005D680937B00C0E009C089E190E0FED556
:100B2000C82F8AE090E0FAD580937B0080917B000B
:100B3000811148C0C0917D0002C0C11103C0109254
:100B40007D0040C0C43028F1D43098F58091A400D5
:100B500084FF12C085FF0DC0E0918F00F0E09091FE
:100B6000940090958081892380838CE580938F0009
:100B700001C0C098109276008BE090E0CFD58093B2
:100B80007B00882309F47CCF80917F0080937C00D8
:100B90000CC0D43070F08DE090E0C0D580937B0025
:100BA000882309F46DCFD0937C00C0937D00C0E012
:100BB00009C080917D00882329F0C0937D00C093F7
:100BC000710075C080917D008C1304C010927B0071
:100BD00010927D0010927F008091780081111AC0E0
:100BE00080917700811116C08091A40083FF12C00C
:100BF00085FF0DC0E0918F00F0E0909194009095FA
:100C00008081892380838CE580938F0001C0C09808
:100C100010927600CC2309F44AC08C2F90E08E5EAF
:100C20009F4F7CD59091A40020919000C430D0F0CB
:100C3000281738F492FD02C060E801C061E0821B11
:100C400001C060E893FF28C095FF07C098E3909328
:100C50008F0091E09093940001C0C09A91E090932E
:100C600076001AC0281738F491FD02C062E001C076
:100C700061E0821B01C062E094FF10C095FF07C0D5
:100C800098E390938F0091E09093940001C0C09AF4
:100C900091E09093760002C09BE301C098E3C0937B
:100CA000710080937E00C0937F00892F29DE8091A0
:100CB0007F00811121C080917D0081111AC0809137
:100CC000A40084FF12C085FF0DC0E0918F00F0E00A
:100CD0009091940090958081892380838CE5809306
:100CE0008F0001C0C0981092760010927B00109285
:100CF0008E0010927E0012C08091770081110EC08C
:100D0000C11102C0C0917D00C43018F08FE090E0A6
:100D100002C08EE090E002D580938E00DF91CF91EB
:100D20000895873008F498CE0895CF93C82F89E1AD
:100D300090E0F4D4C81770F0C43080F08AE190E0FD
:100D4000EDD42C2F30E022503109482F50E04217CB
:100D5000530724F081E08C0FCF91E3CFCF9108951A
:100D6000843011F480E078CE8150DBCFCF93DF93D5
:100D70001F92CDB7DEB780E886BD16BC80E285BF86
:100D80008AB38C638ABB8AB381688ABB87B383606A
:100D900087BB83E080BF8CE083BF8FEF86BF81E09D
:100DA00089BF1FBC8AE18EBD8FE19EE495BD84BDE5
:100DB0002FEF3FEF3BBD2ABD99BD88BD86E28CB9C0
:100DC0008BB780628BBF88E080BD8CE580938F00FD
:100DD00085B7816085BF8BB780648BBF8AB780641D
:100DE0008ABF88E181BD8EE081BD80E190E096D42C
:100DF000182F873010F0DEDC10E06FDD78944AE0C9
:100E000060E081E054D9812F8CDF8091A40080FDC7
:100E10000DC09CE3E92E02E011E023E0D22E3CE578
:100E2000C32E48E3B42E8AE0F82E6CC083E090E035
:100E300075D430DA82E090E071D40BDA811105C00C
:100E400041E061E085E033D9F5CF81E0B9D9E1CF68
:100E500010926900809166009091670001969093CE
:100E60006700809366008830974008F053C08091F7
:100E70007B00811165C080917D00882311F080E1A5
:100E800085DC80918100811169C080918600882372
:100E900009F481C080918D00833009F4A9C080914C
:100EA0008400873008F0A0C18091A40080FFBBCFF0
:100EB00085E990E08FD9882309F4B5CF00936C00C1
:100EC0001093910090919800903C09F03CC2809161
:100ED000950090919600382F209197002E3009F4BC
:100EE000E0C1213009F090C187300CF09CCF109206
:100EF0007700898316DF3981311195CF42E062E0B6
:100F000083E0D5D88895A89580916900882309F455
:100F1000C1CF9ECF109267001092660080918E0024
:100F2000882309F4A4CF815080938E0081119FCF34
:100F300080917F00882309F49ACF80E08DDD97CFE0
:100F4000815080937B00811196CF80917D00882312
:100F500011F0E7DE90CF10927C008DCF8091810060
:100F600081508093810081110CC080917900882389
:100F700041F01092790010927A0043E063E085E03E
:100F800096D880917900882309F47FCF80917A00E8
:100F90008F5FFCDB7ACF80918500109285008823DB
:100FA00009F478CF90917900923049F480917F00D4
:100FB00090E060917E008E5E9F4FBDD3DACF85308A
:100FC00008F034C1833008F465CF80917F00882316
:100FD00009F460CF4FE065E081E069D800937900C3
:100FE00080917E00809371008FEF8093810052CFBB
:100FF00010928D0040908B0050908C0050928A008F
:1010000040928900809188008093870085E290E07B
:1010100085D369E09CD2782E40917900413039F433
:10102000809186008111FFCE80917A00780E009326
:101030006C0010939100B6E28B2EB0E09B2EA12C99
:10104000A71409F49CC0C401498370D34981009757
:1010500009F490C08415950509F08CC08A2D69E0CB
:1010600090D2413061F4911105C010928C00109221
:101070008B008EC041E061E085E019D880C09111FD
:1010800009C0809185008F5F8093850082E3809303
:10109000860075C080918600882341F020918500EC
:1010A000222309F46CC0803308F069C000938600E5
:1010B000913039F4423009F45CCF1092780080E02E
:1010C00057C080917F00811102C080917D009430D3
:1010D00091F410927700423049F480917E00909113
:1010E0009000891708F004C18F5FEEC0843088F546
:1010F00084E290E011C0953091F410927700423074
:1011000039F480917E00823008F4F2C08150DCC056
:10111000843058F583E290E001D303DE30C096308E
:1011200021F41092770084E023C0973021F41092CC
:10113000770085E01DC0983021F41092770086E09A
:1011400017C0923051F4423041F29FEF980F933024
:1011500010F4EBDD14C083E00BC0933081F4423017
:1011600081F29FEF980F933010F4FADD08C081E010
:1011700073DC05C0A39482E0880E911C61CF80913E
:101180007900813009F08BCEA71089CEF0928600CD
:1011900085E290E0C3D2A82EE0918B00F0918C0004
:1011A00090E069E070E0DCD120917A00820F911D1F
:1011B000880F991FBF018A5D9F4FCFD280E0EDDA83
:1011C00080917A00883030F48F5F80937A00E092CB
:1011D000810065CEA3946A2D85E290E0ACD2E9E06F
:1011E000EA1508F4C6CE22C080918300833008F44B
:1011F0004BC010939100B29919C0A89580918300BB
:101200008730C8F3D7DA51C0223009F451C02330F7
:1012100009F463CF243009F474CF253009F45EC09B
:10122000222309F469C0263009F0FDCD41E061E0D8
:1012300083E03DD78FE090E02BD71092830010928F
:10124000840085E290E06AD2A82EF9E0F81768F4ED
:1012500041E061E082E32BD780918400882309F488
:10126000E2CD60E085E290E066D281E08A0D829571
:10127000807F8093710010928D00109379001092FE
:101280007A00E092810010CEB29B0ECE81E190E018
:1012900045D247DDF09282001092830010928400C4
:1012A00003CE8E3E9E4E09F0BECDD19AF894FFCF6C
:1012B00080917F00811102C080917D00313011F456
:1012C00034DD20CE4DDD1ECE80937E0060E080E0D8
:1012D00017DB80917E00809371000AC080917F00AF
:1012E000882331F090E060917E008E5E9F4F23D284
:1012F0008FEF8093810006CE809378009091A400B8
:10130000882369F093FF8FCD95FF05C0B0928F00C1
:101310001093940001C0C09A10937600F3CD93FF10
:1013200082CD95FF0CC0E0918F00F0E09091940089
:101330009095808189238083C0928F0001C0C098DE
:1013400010927600DFCD9F3209F4B8C096FF7FC0BF
:10135000892F807F292F2F708034B9F480919500D8
:10136000909196008A3D910508F05DCD80509040A7
:101370002983223011F4DAD102C0D0D190E09093C9
:10138000960080939500298130C0803591F4F894BF
:10139000E0919500F0919600223019F480819181BE
:1013A00002C0808190E0909396008093950078949D
:1013B0001CC0803609F037CD223059F4E0919500F9
:1013C000F09196008591949190939600809395006A
:1013D0000CC0213051F4E0919500F0919600E49119
:1013E000F0E0F0939600E093950081E090E029838F
:1013F0004FD680E0E5D629812530E1F4F0E38F2E49
:10140000F0E09F2EF401849190E0909396008093F9
:10141000950085E990E0FCD6A82E81110FC08FEFD2
:101420002DD6FFEF8F1A9F0A23E4821620E0920642
:1014300049F704C085E990E0EBD6A82E81E0C0D63C
:10144000AA2009F4F0CC80E18A0DA7D95BCD97FFE3
:1014500038C080917500882309F4E5CC892F80730A
:101460009F70803199F4F894E0919700923041F4A4
:101470008091950090919600F0E09183808304C064
:10148000F0E0809195008083789418C0811116C097
:1014900080919700923049F4609195007091960088
:1014A00090E08050904059D106C090E06091950046
:1014B0008050904040D111DA82E06FD9D09275000F
:1014C00021CD80918E008111AECC80917900811167
:1014D000AACC809095009090960088E090E026D16C
:1014E0008815990578F086E090E020D18815990557
:1014F00058F084E090E01AD121E08815990528F091
:1015000020E003C023E001C022E030917F002317D8
:1015100009F489CC80918000882349F091E0211161
:1015200090E081E0311180E0981709F47CCC1093B1
:101530007700822F2983F5DB2981211102C01092C7
:1015400077008BE190E0EAD080938000DBCC002430
:1015500080FD060E660F11F08695D1F7802D089557
:101560000024552704C0080E591F880F991F0097A3
:1015700029F076956795B8F37105B9F7802D952F09
:101580000895991B79E004C0991F961708F0961BDF
:10159000881F7A95C9F780950895AA1BBB1B51E156
:1015A00007C0AA1FBB1FA617B70710F0A61BB70BD3
:1015B000881F991F5A95A9F780959095BC01CD0178
:1015C0000895A1E21A2EAA1BBB1BFD010DC0AA1F84
:1015D000BB1FEE1FFF1FA217B307E407F50720F09C
:1015E000A21BB30BE40BF50B661F771F881F991F17
:1015F0001A9469F760957095809590959B01AC0160
:10160000BD01CF01089568940013E894A0E0B0E014
:10161000EBE0FBE01DC0EFEFE7F959016A015E2343
:10162000550FEE08FE2C87019B01AC019E23990FFC
:10163000660B762FCB013BD0CDB7DEB7EAE024C0F6
:101640002F923F924F925F926F927F928F929F92D2
:10165000AF92BF92CF92DF92EF92FF920F931F93C0
:10166000CF93DF93CDB7DEB7CA1BDB0B0FB6F89471
:10167000DEBF0FBECDBF09942A88398848885F84B1
:101680006E847D848C849B84AA84B984C884DF8022
:10169000EE80FD800C811B81AA81B981CE0FD11D06
:1016A0000FB6F894DEBF0FBECDBFED010895DF93F6
:1016B000CF939F92A0E49A2E0024D001E001F00184
:1016C00016950795F794E794D794C794B794A79481
:1016D00048F41068A20FB31FC41FD51FE61FF71FE1
:1016E000081E191E220F331F441F551F661F771F28
:1016F000881F991F9A9421F79D01AE01BF01C00177
:1017000011249F90CF91DF910895FB01DC0102C06D
:1017100005900D9241505040D8F70895E199FECFC1
:101720009FBB8EBBE09A99278DB30895A8E1B0E0E6
:1017300042E050E018C0262FE199FECF9FBB8EBB40
:10174000E09A01970DB2021639F01CBA2DBB0FB604
:10175000F894E29AE19A0FBE08950196272FECDFE4
:10176000EACFDC01CB01FC01E199FECF06C0FFBB53
:10177000EEBBE09A31960DB20D9241505040B8F751
:061780000895F894FFCF6C
:061786000F270F270F27BB
:00000001FF
